:020000040000FA
:100000000A128A11E42F0E3404344F308312031382
:100010009D000800F001F00A831203138C1A1128C6
:10002000122820280C1E152816281D2883160313B5
:1000300098181B281C2820281D28F001202820287B
:100040000800F40058287108F3007008F20003104B
:10005000F30CF20C0310F30CF20C7208831203136E
:100060009B009D12701835283928831203131D1622
:100070003C28831203131D1268287108F3007008CE
:10008000F2000310F30CF20C0310F30CF20C7208E4
:10009000831203139500971270184F285328831268
:1000A000031317165628831203131712682868289B
:1000B0007408F200F3017308003A031960286828F5
:1000C0007208163A03192328013A03193D286828B3
:1000D0000800003083120313B5000030B40025304F
:1000E000B3008030B2000A128A1146210A128A1126
:1000F000F0018312031338080A128A1164250A12C8
:100100008A11AA28F001F00A8312031338080A1290
:100110008A112D240A128A110A128A1580270A12BE
:100120008A11FD007D0883120313A8006B300A12A8
:100130008A158B270A128A116B3083120313280643
:10014000031DA328A428A728A901A90AAA28A90150
:10015000AA28AA28831203132903031DB028B12853
:100160008228B228A901A801F00138080A128A11D0
:100170002D240A128A1183120313AB01AB0A080063
:10018000F4002C29831203139F121F129F111F15B5
:10019000C9281F19CC28CD28C928CE281E08F1004F
:1001A000831603131E08F0004529452945298312AB
:1001B00003139F121F129F151F15DE281F19E12818
:1001C000E228DE28E3281E08F100831603131E0828
:1001D000F000452945294529831203139F121F1654
:1001E0009F111F15F3281F19F628F728F328F82860
:1001F0001E08F100831603131E08F0004529452947
:100200004529831203139F121F169F151F150829D6
:100210001F190B290C2908290D291E08F100831626
:1002200003131E08F00045294529452983120313AD
:100230009F161F129F111F151D291F1920292129E3
:100240001D2922291E08F100831603131E08F00041
:1002500045294529452945297408F200F301730809
:10026000003A0319342945297208003A0319C228B3
:10027000013A0319D728033A0319EC28013A031964
:100280000129073A03191629452908008316031383
:100290001811831203133208F9003308FA003408E6
:1002A000FB003508FC0006300310F90DFA0DFB0DBC
:1002B000FC0DFF3E031D54297C08F3007B08F2006F
:1002C0007A08F1007908F0000130F7003130F600CB
:1002D0002D30F5000030F4000A128A11EB210A12C9
:1002E0008A117008FF3E83120313B60071080318C9
:1002F000013EFF3EB70001303702003003193602DD
:10030000031C83298429D229831603131815831209
:1003100003133208F9003308FA003408FB003508EB
:10032000FC0004300310F90DFA0DFB0DFC0DFF3E2F
:10033000031D92297C08F3007B08F2007A08F10083
:100340007908F0000130F7003130F6002D30F5006B
:100350000030F4000A128A11EB210A128A11700887
:10036000FF3E83120313B60071080318013EFF3EDF
:10037000B70036088316031399001812831203136B
:10038000981783160313871707178312031318167A
:100390008316031398168312031399019A01EA290D
:1003A000EA29EA29360883160313990018128312E2
:1003B0000313981783160313871707178312031362
:1003C00018168316031398168312031399019A01C2
:1003D000EA29EA29080083120313AD01F31FF1296A
:1003E000F229FF29F009F109F209F309F00A0319CA
:1003F000F10A0319F20A0319F30AAD01AD0AF71F56
:10040000022A032A132AF409F509F609F709F40A5E
:100410000319F50A0319F60A0319F70A0130F8005F
:100420007808AD06132A0030B1000030B00000306B
:10043000AF000030AE007308720471047004031939
:10044000222A232A762AAC01AC0A342A0130F80089
:100450000310F00DF10DF20DF30DF80B282A013009
:10046000F8007808AC07342AF31F372A382A262ADE
:100470003A2A3A2A0130F8000310AE0DAF0DB00D44
:10048000B10DF80B3C2A73087702031D512A72083C
:100490007602031D512A71087502031D512A700846
:1004A0007402031C542A552A652A7008F402710844
:1004B000031C710FF5027208031C720FF602730819
:1004C000031C730FF7022E14652A01300310F30C7E
:1004D000F20CF10CF00CFF3E031D662A0130AC0259
:1004E000031D732A742A3A2A762A762A2D080319BC
:1004F0007A2A7B2A872AAE09AF09B009B109AE0A68
:100500000319AF0A0319B00A0319B10A872A31087F
:10051000F3003008F2002F08F1002E08F000902AB6
:100520000800FA00FB01FC01292B19307502031C9D
:100530009A2A9B2AA02A1830F8007808F500A02AE9
:100540007708F8007808F00075080A128A11642507
:100550000A128A110130F5000030F600452B452BB8
:10056000452B19307502031CB62AB72ABC2A18304D
:10057000F8007808F500BC2A7708F8007808F00041
:1005800075080A128A112D240A128A117708F800B8
:10059000F9017808F5007908F600452B452B452B25
:1005A00019307502031CD52AD62ADB2A1830F80028
:1005B0007808F500DB2A75080A128A11A3260A12A8
:1005C0008A11F800F9017808F5007908F600452B42
:1005D000452B452B75080A128A11C0200A128A1170
:1005E0007108F6007008F500452B452B452B760861
:1005F000F800F9017808F900F80177087807FB009E
:100600000030031801307907FC007C08F1007B08FA
:10061000F00075080A128A1121200A128A11750841
:10062000F800F9017808F5007908F600452B452B0C
:10063000452B75080A128A15D2270A128A11F8006A
:10064000F9017808F5007908F600452B452B452B74
:10065000452B7A08F800F9017908003A0319312B83
:10066000452B7808053A0319952A033A0319B12A4C
:10067000013A0319D02A0F3A0319EA2A013A031959
:10068000F72A033A0319192B452B08000A128A117D
:100690000A200A128A11162C831203132108AC00B7
:1006A0002C08F5002208AD002D08F6002308AE0046
:1006B0002E08F70020080A128A1191220A128A11C4
:1006C000760883120313A5007508A4002508AC0062
:1006D0002C08A6002408AC002C08A700AB012C2C89
:1006E000AD2BAF01B001892B0A128A1580270A129F
:1006F0008A1183120313AC002F08203E84002C08BB
:10070000831380000130AF070318B00A0030B00730
:10071000892B3008803AAC0080302C02031D922BCC
:1007200039082F02031C952B962B742B972B0A123A
:100730008A1580270A128A1183120313AC002C0831
:10074000A8006B302806031DA62BA72BAA2BA901F6
:10075000A90AAD2BA901AD2BAD2B2903031DB12B8C
:10076000B22B712BB32BA801A9010230AC002C08CD
:10077000AB002C2C0A2CB101B2013208803AFF00E8
:1007800080307F02031DC62B02303102031CC92BAF
:10079000CA2BCC2BEE2BEE2B831203133108263EF3
:1007A0008400831300080A128A158B270A128A1103
:1007B000013083120313B1070318B20A0030B207E5
:1007C0003208803AFF0080307F02031DE92B02309F
:1007D0003102031CEC2BED2BCC2BEE2B3B300A1201
:1007E0008A158B270A128A110A128A1580270A1283
:1007F0008A1183120313AC002C08A8006B30280662
:10080000031D032C042C072CA901A90A0A2CA901F9
:100810000A2C0A2C2903031D0E2C0F2CBB2B102C89
:10082000A901A801AB01AB0A2C2C2C2C83120313B9
:100830002B08AC00AD012D08003A0319202C2C2CFC
:100840002C08003A03190A2C013A0319AD2B033A7C
:1008500003194C2B2C2C2C2C0800F300082D700CA9
:1008600083120313031C871303188717632D700C5F
:1008700083120313031C071303180717632D700C4F
:1008800083120313031C081103180815632D700C41
:1008900083120313031C881103188815632D700C31
:1008A00083120313031C071203180716632D700C21
:1008B00083120313031C871203188716632D700C11
:1008C00083120313031C081203180816632D700CFF
:1008D00083120313031C881203188816632D700CEF
:1008E00083120313031C081303180817632D700CDD
:1008F00083120313031C881303188817632D700CCD
:1009000083120313031C061003180614632D700CC6
:1009100083120313031C861003188614632D700CB6
:1009200083120313031C061103180615632D700CA4
:1009300083120313031C061203180616632D700C92
:1009400083120313031C861103188615632D700C84
:1009500083120313031C861203188616632D700C72
:1009600083120313031C061303180617632D700C60
:1009700083120313031C871103188715632D700C52
:1009800083120313031C861303188617632D700C40
:1009900083120313031C051203180516632D700C34
:1009A00083120313031C851203188516632D700C24
:1009B00083120313031C071003180714632D700C14
:1009C00083120313031C871003188714632D700C04
:1009D00083120313031C071103180715632D700CF2
:1009E00083120313031C881003188814632D700CE2
:1009F00083120313031C081003180814632D700CD2
:100A000083120313031C051103180515632D632DB1
:100A10007308F100F2017208003A0319102D632DDA
:100A20007108003A03192F2C013A0319372C033AA5
:100A300003193F2C013A0319472C073A03194F2C8D
:100A4000013A0319572C033A03195F2C013A031991
:100A5000672C0F3A03196F2C013A0319772C033ACC
:100A600003197F2C013A0319872C073A03198F2C9D
:100A7000013A0319972C033A03199F2C013A0319E1
:100A8000A72C1F3A0319AF2C013A0319B72C033ACC
:100A90000319BF2C013A0319C72C073A0319CF2CAD
:100AA000013A0319D72C033A0319DF2C013A031931
:100AB000E72C0F3A0319EF2C013A0319F72C033AEC
:100AC0000319FF2C632D0800F300472E700C8316CA
:100AD0000313031C871303188717A22E700C8316A9
:100AE0000313031C071303180717A22E700C831699
:100AF0000313031C081103180815A22E700C83168B
:100B00000313031C881103188815A22E700C83167A
:100B10000313031C071203180716A22E700C83166A
:100B20000313031C871203188716A22E700C83165A
:100B30000313031C081203180816A22E700C831648
:100B40000313031C881203188816A22E700C831638
:100B50000313031C081303180817A22E700C831626
:100B60000313031C881303188817A22E700C831616
:100B70000313031C061003180614A22E700C831610
:100B80000313031C861003188614A22E700C831600
:100B90000313031C061103180615A22E700C8316EE
:100BA0000313031C061203180616A22E700C8316DC
:100BB0000313031C861103188615A22E700C8316CE
:100BC0000313031C861203188616A22E700C8316BC
:100BD0000313031C061303180617A22E700C8316AA
:100BE0000313031C871103188715A22E700C83169C
:100BF0000313031C861303188617A22E700C83168A
:100C00000313031C051203180516A22E83160313E3
:100C10009F111F159F101F10700C031C85120318C5
:100C20008516A22E700C83160313031C07100318DD
:100C30000714A22E700C83160313031C87100318CD
:100C40008714A22E700C83160313031C07110318BC
:100C50000715A22E700C83160313031C88100318AB
:100C60008814A22E700C83160313031C081003189B
:100C70000814A22E831603139F111F159F101F1017
:100C8000700C031C051103180515A22EA22E730863
:100C9000F100F2017208003A03194F2EA22E7108DA
:100CA000003A0319662D013A03196E2D033A031910
:100CB000762D013A03197E2D073A0319862D013A44
:100CC00003198E2D033A0319962D013A03199E2D0F
:100CD0000F3A0319A62D013A0319AE2D033A031951
:100CE000B62D013A0319BE2D073A0319C62D013A54
:100CF0000319CE2D033A0319D62D013A0319DE2D1F
:100D00001F3A0319E62D013A0319EE2D033A031990
:100D1000F62D013A0319FE2D073A0319062E013A62
:100D20000319122E033A03191A2E013A0319222E1F
:100D30000F3A03192A2E013A0319322E033A0319E6
:100D40003A2EA22E0800F200882F83120313070DFB
:100D5000070D0139E32FE32FE32F83120313070E4F
:100D6000F000F00C700C0139E32FE32FE32F831216
:100D70000313080CF000700C0139E32FE32FE32F6D
:100D800083120313080CF000F00C700C0139E32FF0
:100D9000E32FE32F83120313070E0139E32FE32F11
:100DA000E32F83120313070EF000700C0139E32FB9
:100DB000E32FE32F83120313080E0139E32FE32FF0
:100DC000E32F83120313080EF000700C0139E32F98
:100DD000E32FE32F83120313080EF000F00C700CC6
:100DE0000139E32FE32FE32F83120313080D080DBE
:100DF0000139E32FE32FE32F831203130608013990
:100E0000E32FE32FE32F83120313060C0139E32FA3
:100E1000E32FE32F83120313060CF000700C01394B
:100E2000E32FE32FE32F83120313060E0139E32F81
:100E3000E32FE32F83120313060CF000F00C700C69
:100E40000139E32FE32FE32F83120313060EF00083
:100E5000700C0139E32FE32FE32F83120313060EE7
:100E6000F000F00C700C0139E32FE32FE32F831215
:100E70000313070CF000F00C700C0139E32FE32F83
:100E8000E32F83120313060D060D0139E32FE32F21
:100E9000E32F83120313050E0139E32FE32FE32F12
:100EA00083120313050EF000700C0139E32FE32FBA
:100EB000E32F8312031307080139E32FE32FE32FF6
:100EC00083120313070C0139E32FE32FE32F83125F
:100ED0000313070CF000700C0139E32FE32FE32F0D
:100EE00083120313080C0139E32FE32FE32F83123E
:100EF000031308080139E32FE32FE32F83120313B1
:100F0000050CF000700C0139E32FE32FE32FE32FE2
:100F10007208F000F1017108003A0319902FE32FD5
:100F20007008003A0319A52E013A0319AD2E033AB1
:100F30000319B72E013A0319C02E073A0319CA2E16
:100F4000013A0319D12E033A0319DA2E013A031993
:100F5000E12E0F3A0319EA2E013A0319F42E033A4F
:100F60000319FC2E013A0319032F073A03190A2F1C
:100F7000013A0319132F033A03191A2F013A0319DF
:100F8000242F1F3A03192D2F013A0319372F033A43
:100F90000319412F013A0319492F073A0319502F1A
:100FA000013A0319592F033A0319602F013A031923
:100FB000672F0F3A0319702F013A0319772F033A5D
:100FC00003197E2FE32F08000A128A1103200A1248
:100FD0008A11B8000A128A1104200A128A11B90073
:100FE000A001A101A201A301A401A501A601A701DD
:100FF000A801A901AA01AB0183010A128A15972F42
:101EEA00FF30831603139200053083120313920006
:101EFA004F3097000800812F831203138C1E862F00
:101F0A00872F812F882F1A088A2F0800F0008D2F1B
:101F1A00831203130C1E922F932F8D2F942F700868
:101F2A00990008000A128A15AC270A128A150A12A1
:101F3A008A1169200A128A15A22F0A128A114623C7
:101F4A000A128A15A22FA22F0A128A11002881309A
:101F5A00831203139F00C230831603139F00850167
:101F6A003F308500860100308600870100308700F7
:101F7A000A128A1575270A128A150A128A11052069
:101F8A000A128A158801003088088312031389010E
:101F9A0007308316031389000800F200EC2F83121E
:101FAA00031309080139FF2FFF2FFF2F8312031391
:101FBA00090C0139FF2FFF2FFF2F83120313090C7E
:101FCA00F000700C0139FF2FFF2FFF2FFF2F72082F
:101FDA00F000F1017108003A0319F42FFF2F70087D
:101FEA00003A0319D42F013A0319DB2F033A0319D4
:061FFA00E22FFF2F08009A
:02400E00BA3FB7
:00000001FF
