:060000000A128A11D62F3E
:10000800FF30831603139200053083120313920006
:100018009B0195010C3097000C309D000800813041
:10002800831203139F00C230831603139F008501B8
:100038003F3085008312031386018316031386015C
:100048008312031386018701831603138701831222
:10005800031387010A128A1104200A128A118801DF
:10006800003088088801831203138901073083163A
:100078000313890008000A128A15A8220A128A1195
:100088000F29831203135C08D4005408CC005D08C0
:10009800D5005508CD005E08D6005608CE005B088E
:1000A8000A128A1193240A128A11831203134D0823
:1000B800E2004C08E1006208D4005408E30061083B
:1000C800D4005408E400E8012529A628D701D8015E
:1000D80082280A128A157D220A128A1183120313B2
:1000E800D40057085B3E8400540883138000013015
:1000F800D7070318D80A0030D80782285808803A4A
:10010800D40080305402031D8B286C085702031C4E
:100118008E288F286D2890280A128A157D220A12A7
:100128008A1183120313D4005408E5006B30650666
:10013800031D9F28A028A328E601E60AA628E601B1
:10014800A628A6286603031DAA28AB286A28AC2877
:10015800E501E6010230D4005408E8002529032906
:10016800D901DA015A08803AFF0080307F02031D66
:10017800BF2802305902031CC228C328C528E72813
:10018800E728831203135908633E84008313000889
:100198000A128A1588220A128A110130831203135F
:1001A800D9070318DA0A0030DA075A08803AFF003C
:1001B80080307F02031DE22802305902031CE52823
:1001C800E628C528E7283B300A128A1588220A1231
:1001D8008A110A128A157D220A128A1183120313C0
:1001E800D4005408E5006B306506031DFC28FD2883
:1001F8000029E601E60A0329E60103290329660323
:10020800031D07290829B4280929E601E501E801A1
:10021800E80A25292529831203136808D400D50183
:100228005508003A0319192925295408003A0319D1
:100238000329013A0319A628033A03194528252951
:1002480025290800F300F129700C83160313031CF9
:10025800871303188717462A700C83160313031C89
:10026800071303180717462A700C83160313031C79
:10027800871203188716462A700C83160313031C6B
:10028800071203180716462A700C83160313031C5B
:10029800871103188715462A700C83160313031C4D
:1002A800071103180715462A700C83160313031C3D
:1002B800871003188714462A700C83160313031C2F
:1002C800071003180714462A700C83160313031C1F
:1002D800061003180614462A700C83160313031C11
:1002E800861003188614462A700C83160313031C01
:1002F800061103180615462A700C83160313031CEF
:10030800861103188615462A700C83160313031CDE
:10031800061203180616462A700C83160313031CCC
:10032800861203188616462A700C83160313031CBC
:10033800061303180617462A700C83160313031CAA
:10034800861303188617462A700C83160313031C9A
:10035800081003180814462A700C83160313031C8C
:10036800881003188814462A700C83160313031C7C
:10037800081103180815462A700C83160313031C6A
:10038800881103188815462A700C83160313031C5A
:10039800081203180816462A700C83160313031C48
:1003A800881203188816462A700C83160313031C38
:1003B800081303180817462A700C83160313031C26
:1003C800881303188817462A700C83160313031C16
:1003D800051203180516462A462A7308F100F20189
:1003E8007208003A0319F929462A7108003A0319D4
:1003F8002829013A03193029033A03193829013AFF
:1004080003194029073A03194829013A03195029C1
:10041800033A03195829013A031960290F3A0319B5
:100428006829013A03197029033A03197829013A0E
:1004380003198029073A03198829013A03199029D1
:10044800033A03199829013A0319A0291F3A0319F5
:10045800A829013A0319B029033A0319B829013A1E
:100468000319C029073A0319C829013A0319D029E1
:10047800033A0319D829013A0319E0290F3A031955
:10048800E829462A0800F300142B700C8312031382
:10049800031C871303188717692B700C8312031327
:1004A800031C071303180717692B700C8312031317
:1004B800031C871203188716692B700C8312031309
:1004C800031C071203180716692B700C83120313F9
:1004D800031C871103188715692B831203139701CF
:1004E800700C031C071103180715692B83120313DB
:1004F8009D01700C031C871003188714692B700C5E
:1005080083120313031C071003180714692B700CBC
:1005180083120313031C061003180614692B700CAE
:1005280083120313031C861003188614692B700C9E
:1005380083120313031C061103180615692B700C8C
:1005480083120313031C861103188615692B700C7C
:1005580083120313031C061203180616692B700C6A
:1005680083120313031C861203188616692B700C5A
:1005780083120313031C061303180617692B700C48
:1005880083120313031C861303188617692B700C38
:1005980083120313031C081003180814692B700C2A
:1005A80083120313031C881003188814692B700C1A
:1005B80083120313031C081103180815692B700C08
:1005C80083120313031C881103188815692B700CF8
:1005D80083120313031C081203180816692B700CE6
:1005E80083120313031C881203188816692B700CD6
:1005F80083120313031C081303180817692B700CC4
:1006080083120313031C881303188817692B700CB3
:1006180083120313031C051203180516692B692B93
:100628007308F100F2017208003A03191C2B692BB8
:100638007108003A0319492A013A0319512A033A61
:100648000319592A013A0319612A073A0319692A31
:10065800013A0319712A033A03197A2A013A03194C
:10066800832A0F3A03198B2A013A0319932A033A6A
:1006780003199B2A013A0319A32A073A0319AB2A3B
:10068800013A0319B32A033A0319BB2A013A031999
:10069800C32A1F3A0319CB2A013A0319D32A033A6A
:1006A8000319DB2A013A0319E32A073A0319EB2A4B
:1006B800013A0319F32A033A0319FB2A013A0319E9
:1006C800032B0F3A03190B2B692B0800F2003D2C62
:1006D80083120313070D070D0139922C922C922CCB
:1006E80083120313070EF000F00C700C0139922CE2
:1006F800922C922C83120313070EF000700C013910
:10070800922C922C922C83120313070E0139922CEF
:10071800922C922C83120313070CF000F00C700C2F
:100728000139922C922C922C83120313070CF0009F
:10073800700C0139922C922C922C83120313070C03
:100748000139922C922C922C831203130708013939
:10075800922C922C922C8312031306080139922CA6
:10076800922C922C83120313060C0139922C922C92
:10077800922C83120313060CF000700C0139922C92
:10078800922C922C83120313060CF000F00C700CC0
:100798000139922C922C922C83120313060E0139E4
:1007A800922C922C922C83120313060EF000700CDC
:1007B8000139922C922C922C83120313060EF0000E
:1007C800F00C700C0139922C922C922C831203138A
:1007D800060D060D0139922C922C922C83120313CC
:1007E80008080139922C922C922C83120313080CBE
:1007F8000139922C922C922C83120313080CF000CE
:10080800700C0139922C922C922C83120313080C31
:10081800F000F00C700C0139922C922C922C83125F
:100828000313080E0139922C922C922C8312031375
:10083800080EF000700C0139922C922C922C831225
:100848000313080EF000F00C700C0139922C922C56
:10085800922C83120313080D080D0139922C922C47
:10086800922C83120313050E0139922C922C922C90
:10087800922C7208F000F1017108003A0319452C16
:10088800922C7008003A03196C2B013A0319742B47
:10089800033A03197E2B013A0319872B073A0319E8
:1008A8008E2B013A0319982B033A0319A12B013A0D
:1008B8000319A82B0F3A0319AF2B013A0319B62BCA
:1008C800033A0319BD2B013A0319C62B073A03193A
:1008D800D02B013A0319D72B033A0319E02B013A1D
:1008E8000319EA2B1F3A0319F22B013A0319F92BC2
:1008F800033A0319002C013A0319092C073A031982
:10090800132C013A03191A2C033A0319232C013A20
:1009180003192D2C0F3A0319352C922C0800831239
:100928000313D100D201D301A42D19304C02031CAA
:100938009E2C9F2CA42C1830CF004F08CC00A42C40
:100948004E08CF004F08F0004C080A128A112621E1
:100958000A128A11013083120313CC000030CD0033
:10096800CC2DCC2DCC2D19304C02031CBC2CBD2C0D
:10097800C22C1830CF004F08CC00C22C4E08CF0034
:100988004F08F0004C080A128A1147220A128A11ED
:10099800831203134E08CF00D0014F08CC00500833
:1009A800CD00CC2DCC2DCC2D19304C02031CDD2CC8
:1009B800DE2CE32C1830CF004F08CC00E32C4C0879
:1009C8000A128A116A230A128A1183120313CF00AA
:1009D800D0014F08CC005008CD00CC2DCC2DCC2D0B
:1009E8004C080A128A153D240A128A1171088312CA
:1009F8000313CD007008CC00CC2DCC2DCC2D4D0888
:100A0800CF00D0014F08D000CF014E084F07D200C9
:100A18000030031801305007D3005308F100520882
:100A2800F0004C080A128A15DD220A128A11831274
:100A380003134C08CF00D0014F08CC005008CD005C
:100A4800CC2DCC2DCC2D4C080A128A15D6230A128F
:100A58008A1183120313CF00D0014F08CC0050082D
:100A6800CD00CC2DCC2DCC2D0B304C06031D3D2DAF
:100A78003E2D482D0608CF00D0014F08CC00500865
:100A8800CD00CC2DCC2DCC2D0D304C06031D4D2D7D
:100A98004E2DCC2D0808CF00D0014F08CC005008AF
:100AA800CD00CC2DCC2DCC2DCC2D0B304C06031DE0
:100AB8005E2D5F2D622D4E088600CC2D0D304C0624
:100AC800031D672D682DCC2D4E088800CC2DCC2D0C
:100AD800CC2D6908CF004F08C5006A080A128A158C
:100AE800C3240A128A11831203134608D300450847
:100AF800D2005308CD005208CC00CC2DCC2DCC2DE3
:100B08000B304C06031D892D8A2D8F2D4E08831618
:100B1800031386009B2D0D3083124C06031D952D63
:100B2800962D9B2D4E088316031388009B2D153098
:100B38008312CC000030CD00CC2DCC2DCC2DCC2D6B
:100B48005108CF00D0015008003A0319AC2DCC2D24
:100B58004F08053A0319992C033A0319B72C013A9F
:100B68000319D82C0F3A0319F42C013A0319032D51
:100B7800033A0319272D013A0319382D073A0319A7
:100B8800592D013A03196D2D183A0319842DCC2DCE
:100B980008008312031327088039A8002808B10029
:100BA8002708A8002807A9002908B800A61FDD2DD6
:100BB800DE2DE02D3814E02D38080319E42DE52D3D
:100BC800F62D380A031DE92DEA2DF32D0030A70074
:100BD8000030A6000030A5000030A400F32DA617B1
:100BE800A701FF2D0030A7000030A6000030A500A7
:100BF8000030A400FF2D23088039A8002808B1067A
:100C08002308A8002807A9002908B900A21F0D2E4B
:100C18000E2E102E3914102E39080319142E152EE5
:100C2800262E390A031D192E1A2E232E0030A30052
:100C38000030A2000030A1000030A000232EA2172F
:100C4800A3012E2E0030A3000030A2000030A10026
:100C58000030A0002308220421042004031D352E9F
:100C6800362E502E0030A7000030A6000030A50018
:100C78000030A4008030A6047F30A7043108A80003
:100C88002808A7042708A3002608A2002508A10011
:100C98002408A000D52FD52F3808031D542E552E13
:100CA800672E0030A7000030A6000030A5000030F5
:100CB800A4002708A3002608A2002508A1002408EC
:100CC800A000D52FD52F3908A800A901A809A9097E
:100CD800A80A0319A90A38082807AA002908031826
:100CE800290AAB002A087F3EB2002B080318013EF0
:100CF800003EB3002708B0002608AF002508AE0064
:100D08002408AD000030A7000030A6000030A50080
:100D18000030A4000030B7000030B6000030B50045
:100D28000030B400B901E62E390803199C2E9D2E17
:100D3800BF2E0130A8000310AD0DAE0DAF0DB00DE4
:100D4800A80B9F2E0130A8000310A40DA50DA60D19
:100D5800A70DA80BA82EB71FB22EB32EB52E24149C
:100D6800B52E0130A8000310B40DB50DB60DB70DA2
:100D7800A80BB72EBF2E23083002031DCD2E220844
:100D88002F02031DCD2E21082E02031DCD2E200873
:100D98002D02031CD02ED12EE12E37172008AD02CC
:100DA8002108031C210FAE022208031C220FAF02E8
:100DB8002308031C230FB002E12E0130A8002808E5
:100DC800B907E62E1A303902031CEB2EEC2E982EAA
:100DD800ED2E30082F042E042D040319F42EF52EC1
:100DE800172F3414172F172F0130A8000310A40D44
:100DF800A50DA60DA70DA80BFA2EB71F042F052FBA
:100E0800072F2414072F0130A8000310B40DB50DC7
:100E1800B60DB70DA80B092FFF30B2070318B30A98
:100E2800FF30B307172FA61F1A2F1B2FF82E1C2FC2
:100E3800B901B71F202F212F412FFF303405A800FB
:100E4800FF303505A900FF303605AA007F30370589
:100E5800AB002B082A04290428040319342F352F42
:100E6800382FB901B90A412F241C3B2F3C2F412FA1
:100E7800B901B90A412F412F412F39080319452FCC
:100E8800462F792F0130A407003003180130A50739
:100E9800003003180130A607003003180130A707F7
:100EA800271C572F582F792F2408A8002508A90098
:100EB8002608AA002708AB000130AC002B0DAB0CAC
:100EC800AA0CA90CA80CAC0B622F2B08A7002A08A7
:100ED800A6002908A5002808A4000130B2070318B5
:100EE800B30A0030B307792F792F3308803AFF000F
:100EF80080307F02031D822FFF303202031C852FB2
:100F0800862F952FFF3083120313B2000030B300F1
:100F18000030A7000030A6000030A5000030A40073
:100F2800952F831203133308803AFF0080307F0225
:100F3800031DA02F013032020318A32FA42FB12FB5
:100F480083120313B201B3010030A7000030A600DA
:100F58000030A5000030A400B10183120313320849
:100F6800A8002808B800381CBA2FBB2FBD2FA61719
:100F7800C12F7F30A8002808A6053808A80003104C
:100F8800280CA9002908A7003108A8002808A704E8
:100F98002708A3002608A2002508A1002408A0000D
:100FA800D52F08000A128A1579220A128A11E90037
:100FB8000A128A157A220A128A11EA000A128A1576
:100FC8007B220A128A11EB000A128A157C220A1265
:100FD8008A11EC00DB01DC01DD01DE01DF01E0014B
:100FE800E101E201E301E401E501E601E701E801CD
:080FF80083010A128A15942AF4
:1014F200033402340E3404347E2A831203138C1E06
:10150200832A842A7E2A852A1A08872A0800F0005C
:101512008A2A831203130C1E8F2A902A8A2A912A5E
:101522007008990008000A128A1113200A128A15FB
:101532000A128A1573230A128A159F2A0A128A111D
:101542003F200A128A159F2A0A128A110028F001E6
:10155200F00A831203138C1AAF2AB02ABE2A0C1E79
:10156200B32AB42ABB2A831603139818B92ABA2AB3
:10157200BE2ABB2AF001BE2ABE2A0800F50030307E
:101582008312031390008F018E01F00175080A1275
:101592008A1126210A128A15F00175080A128A1187
:1015A20047220A128A15F001F00A74080A128A11F7
:1015B20026210A128A150800F400142B7108F30080
:1015C2007008F2000310F30CF20C0310F30CF20C8F
:1015D2007208831203139B009D127018F12AF52AD8
:1015E200831203131D16F82A831203131D12242BD0
:1015F2007108F3007008F2000310F30CF20C0310F0
:10160200F30CF20C720883120313950097127018F0
:101612000B2B0F2B831203131716122B8312031398
:101622001712242B242B7408F200F3017308003ADA
:1016320003191C2B242B7208053A0319F92A033AC1
:101642000319DF2A242B0800F301F4017408803AFD
:10165200F2007108803A7202031D312B7008730286
:10166200031C342B352B372B722B722BF501F60111
:101672007608803AFF0080307F02031D422BEB3058
:101682007502031C452B462B482B5D2B5D2B00005E
:101692000130F5070318F60A0030F6077608803A9B
:1016A200FF0080307F02031D582BEB307502031CB4
:1016B2005B2B5C2B482B5D2B0130F3070318F40ADC
:1016C2000030F4077408803AF2007108803A72021E
:1016D200031D6D2B70087302031C702B712B372BAB
:1016E200722B0800003083120313A9000030A800F7
:1016F2002530A7008030A6000A128A15F3250A12A7
:101702008A15F001831203136B080A128A1126212B
:101712000A128A15831203136908FD007D08F4007A
:101722006A080A128A15BF220A128A15C02BF00112
:10173200F00A831203136B080A128A1147220A1253
:101742008A150A128A157D220A128A15FD007D0861
:1017520083120313E5006B300A128A1588220A12DB
:101762008A156B30831203136506031DB92BBA2B3E
:10177200BD2BE601E60AC02BE601C02BC02B83126B
:1017820003136603031DC62BC72B982BC82BE60138
:10179200E501F0016B080A128A1147220A128A1522
:1017A20083120313E801E80A0800F900292C8312C6
:1017B2000313091CDD2BDE2BEE2B6430F00000300E
:1017C200F1000A128A1525230A128A1583120313BD
:1017D200090801393C2C3C2C3C2C00303C2C3C2C84
:1017E2003C2C83120313891CF72BF82B082C643032
:1017F200F0000030F1000A128A1525230A128A1518
:1018020083120313090C01393C2C3C2C3C2C003074
:101812003C2C3C2C3C2C83120313091D112C122C42
:10182200242C7830F0000030F1000A128A152523AA
:101832000A128A1583120313090CF700770C013977
:101842003C2C3C2C3C2C00303C2C3C2C3C2C3C2C8E
:101852007908F700F8017808003A0319312C3C2C7A
:101862007708003A0319D82B013A0319F22B033AED
:1018720003190C2C3C2C0800F400A92C831203132E
:101882009F121F129F111F15462C1F19492C4A2CFB
:10189200462C4B2C1E08F100831603131E08F00081
:1018A200C22CC22CC22C831203139F121F129F152B
:1018B2001F155B2C1F195E2C5F2C5B2C602C1E08E5
:1018C200F100831603131E08F000C22CC22CC22C96
:1018D200831203139F121F169F111F15702C1F19BD
:1018E200732C742C702C752C1E08F10083160313B4
:1018F2001E08F000C22CC22CC22C831203139F12AA
:101902001F169F151F15852C1F19882C892C852CB5
:101912008A2C1E08F100831603131E08F000C22C45
:10192200C22CC22C831203139F161F129F111F1564
:101932009A2C1F199D2C9E2C9A2C9F2C1E08F1006C
:10194200831603131E08F000C22CC22CC22CC22C18
:101952007408F200F3017308003A0319B12CC22C87
:101962007208003A03193F2C013A0319542C033A26
:101972000319692C013A03197E2C073A0319932C97
:10198200C22C080083120313CB00C901CA018F01C4
:101992008E01F001F00A4B080A128A1147220A123C
:1019A2008A150F3083120313C700C70BD62CD92C0C
:1019B200F001831203134B080A128A1147220A12FA
:1019C2008A15E42CE42C8312031345080A128A11A7
:1019D2006A230A128A15003A0319F02CF12CE42C1E
:1019E200831203131014F62CF62C831203134508EA
:1019F2000A128A116A230A128A15003A031D022D5D
:101A0200032DF62C8312031310100F08C700C80110
:101A12004708C800C7010E084707F0000030031846
:101A220001304807F100F201F11BF2037208F300E2
:101A320001300A128A153E270A128A157308831288
:101A42000313A7007208A6007108A5007008A4007D
:101A52004030A3006C30A200CC30A100CD30A000F9
:101A62000A128A11CD250A128A158312031323083A
:101A7200BD002208BC002108BB002008BA000A12DF
:101A82008A1557250A128A15831203133B08CA00C6
:101A92003A08C9000730C9020030031CCA03CA024F
:101AA2004A08C6004908C500562D080083120313D0
:101AB2003A08BE003B08BF003C08C0003D08C10018
:101AC2000310400D410DC2004208C4004408031D2A
:101AD2006B2D6C2D762D0030BD000030BC00003027
:101AE200BB000030BA00F22DF22D3A08BE003B08CE
:101AF200BF003C08C0003D08C1001F300310C10CEC
:101B0200C00CBF0CBE0CFF3E031D7F2D3E08C20061
:101B12004208C300BC17FF30BA05FF30BB05FF30D7
:101B2200BC050030BD059630C402C41F992D9A2D04
:101B3200BF2D4408803A973E0318A02DA12DAC2D4D
:101B42000030BD000030BC000030BB000030BA00E5
:101B5200F22DF22DAC2D01300310BD0CBC0CBB0CD0
:101B6200BA0CFF3E031DAD2D0130BE003E08C40776
:101B7200031DBC2DBD2DAC2DE22DE22D20304402E3
:101B8200031CC42DC52DDB2D0030BD000030BC0070
:101B92000030BB000030BA00F22DF22DDB2D0130F7
:101BA200BE000310BA0DBB0DBC0DBD0DBE0BD22D78
:101BB2000130C4024408031DDF2DE02DD02DE22D9B
:101BC200E22D43080319E62DE72DF22DBA09BB09D0
:101BD200BC09BD09BA0A0319BB0A0319BC0A0319D5
:101BE200BD0A080083160313181183120313260873
:101BF200F9002708FA002808FB002908FC00063033
:101C02000310F90DFA0DFB0DFC0DFF3E031D012E15
:101C12007C08F3007B08F2007A08F1007908F000F2
:101C22000130F7003130F6002D30F5000030F400BD
:101C32000A128A1598260A128A157008FF3E831224
:101C42000313AA0071080318013EFF3EAB000130E6
:101C52002B02003003192A02031C302E312E7F2E54
:101C6200831603131815831203132608F900270895
:101C7200FA002808FB002908FC0004300310F90DC3
:101C8200FA0DFB0DFC0DFF3E031D3F2E7C08F300F9
:101C92007B08F2007A08F1007908F0000130F700C1
:101CA2003130F6002D30F5000030F4000A128A15AA
:101CB20098260A128A157008FF3E83120313AA009F
:101CC20071080318013EFF3EAB002A088316031376
:101CD2009900181283120313981783160313871798
:101CE2000717831203131816831603139816831209
:101CF200031399019A01972E972E972E2A0883167D
:101D020003139900181283120313981783160313EF
:101D120087170717831203131816831603139816CF
:101D22008312031399019A01972E972E08008312AA
:101D32000313A101F31F9E2E9F2EAC2EF009F10971
:101D4200F209F309F00A0319F10A0319F20A031955
:101D5200F30AA101A10AF71FAF2EB02EC02EF4097B
:101D6200F509F609F709F40A0319F50A0319F60A3F
:101D72000319F70A0130F8007808A106C02E0030D6
:101D8200A5000030A4000030A3000030A2007308B8
:101D92007204710470040319CF2ED02E232FA001D8
:101DA200A00AE12E0130F8000310F00DF10DF20D42
:101DB200F30DF80BD52E0130F8007808A007E12EBC
:101DC200F31FE42EE52ED32EE72EE72E0130F80086
:101DD2000310A20DA30DA40DA50DF80BE92E730897
:101DE2007702031DFE2E72087602031DFE2E710875
:101DF2007502031DFE2E70087402031C012F022FB0
:101E0200122F7008F4027108031C710FF502720898
:101E1200031C720FF6027308031C730FF7022214DD
:101E2200122F01300310F30CF20CF10CF00CFF3EF8
:101E3200031D132F0130A002031D202F212FE72E97
:101E4200232F232F21080319272F282F342FA209EC
:101E5200A309A409A509A20A0319A30A0319A40A3A
:101E62000319A50A342F2508F3002408F2002308D9
:101E7200F1002208F0003D2F0800F800780803194D
:101E8200432F442F582FF31F472F482F582F7009E5
:101E9200FA007109FB007209FC007309FD00FA0ADD
:101EA2000319FB0A0319FC0A0319FD0A602F7308C0
:101EB200FD007208FC007108FB007008FA0073084C
:101EC200720471047004031D672F682F722F003093
:101ED200F3000030F2000030F1000030F000FF2F7C
:101EE200FF2F9630F4007408F900852F0130F400BA
:101EF2007408F90701300310FD0CFC0CFB0CFA0C02
:101F0200FF3E031D7C2F852FFE307D05031D8A2F8A
:101F12008B2F772FA82FA82F0130F4007408F90710
:101F22000130FA07003003180130FB0700300318B4
:101F32000130FC07003003180130FD0701300310A7
:101F4200FD0CFC0CFB0CFA0CFF3E031DA02FFF3016
:101F52007D05031DAD2FAE2F8D2FBC2FBC2F013061
:101F6200F9020130F4000310FA0DFB0DFC0DFD0D1A
:101F7200F40BB42FBC2FFC1BBF2FC02FC72F023076
:101F820079020318C52FC62FB02FC72F7918CA2F71
:101F9200CB2FD32FFF30FA05FF30FB057F30FC0536
:101FA200FF30FD050310F90C7908F400F501F60184
:101FB200F70118300310F40DF50DF60DF70DFF3E85
:101FC200031DDB2F7408FA047508FB047608FC0471
:101FD2007708FD0478080319EF2FF02FF62FF31F6F
:101FE200F32FF42FF62FFD17F62F7D08F3007C0850
:0E1FF200F2007B08F1007A08F000FF2F0800D3
:02400E00BA3FB7
:00000001FF
